:100000000C942A000C9447000C9447000C94470071
:100010000C9447000C9447000C9447000C94470044
:100020000C9447000C9447000C9463050C949605BF
:100030000C9447000C9447000C9447000C94470024
:100040000C9447000C9447000C9447000C94470014
:100050000C94470011241FBECFE5D8E0DEBFCDBF12
:1000600010E0A0E6B0E0E4EFFDE002C005900D92E4
:10007000A037B107D9F710E0A0E7B0E001C01D92AA
:10008000A737B107E1F70E94CE050C94F8060C944F
:100090000000DF93CF93CDB7DEB728970FB6F89463
:1000A000DEBF0FBECDBF8A836B834C8381E0898323
:1000B0008B81883008F0F1C08C81813009F071C0EB
:1000C0008A81282F30E038872F838F81988581306F
:1000D000910549F12F813885223031052CF48F812B
:1000E0009885009761F05BC02F81388522303105FB
:1000F00071F18F81988583309105E9F150C0AAE3B1
:10010000B0E0EAE3F0E08081482F8B81282F30E0D7
:1001100081E090E0022E02C0880F991F0A94E2F756
:10012000842B8C93BBC0A7E3B0E0E7E3F0E08081D1
:10013000482F8B81282F30E081E090E0022E02C012
:10014000880F991F0A94E2F7842B8C93A7C0A4E32D
:10015000B0E0E4E3F0E08081482F8B81282F30E08D
:1001600081E090E0022E02C0880F991F0A94E2F706
:10017000842B8C9393C0A1E3B0E0E1E3F0E08081B5
:10018000482F8B81282F30E081E090E0022E02C0C2
:10019000880F991F0A94E2F7842B8C937FC01982F1
:1001A0007DC08C81882309F076C08A81282F30E0B9
:1001B0003E832D838D819E818130910559F12D8162
:1001C0003E81223031052CF48D819E81009769F0AB
:1001D00060C02D813E812230310589F18D819E8163
:1001E0008330910509F440C054C0AAE3B0E0EAE3CB
:1001F000F0E08081482F8B81282F30E081E090E073
:10020000022E02C0880F991F0A94E2F7809584237A
:100210008C9344C0A7E3B0E0E7E3F0E08081482F8F
:100220008B81282F30E081E090E0022E02C0880F01
:10023000991F0A94E2F7809584238C932FC0A4E33E
:10024000B0E0E4E3F0E08081482F8B81282F30E09C
:1002500081E090E0022E02C0880F991F0A94E2F715
:10026000809584238C931AC0A1E3B0E0E1E3F0E031
:100270008081482F8B81282F30E081E090E0022E92
:1002800002C0880F991F0A94E2F7809584238C930B
:1002900005C0198203C0198201C01982898128967C
:1002A0000FB6F894DEBF0FBECDBFCF91DF9108959A
:1002B000DF93CF93CDB7DEB728970FB6F894DEBFA4
:1002C0000FBECDBF8A836B834C8381E089838B8192
:1002D000883008F0F1C08C81813009F071C08A81CA
:1002E000282F30E038872F838F81988581309105C2
:1002F00049F12F813885223031052CF48F81988582
:10030000009761F05BC02F8138852230310571F193
:100310008F81988583309105E9F150C0ABE3B0E05F
:10032000EBE3F0E08081482F8B81282F30E081E0E3
:1003300090E0022E02C0880F991F0A94E2F7842BE6
:100340008C93BBC0A8E3B0E0E8E3F0E08081482FE5
:100350008B81282F30E081E090E0022E02C0880FD0
:10036000991F0A94E2F7842B8C93A7C0A5E3B0E011
:10037000E5E3F0E08081482F8B81282F30E081E099
:1003800090E0022E02C0880F991F0A94E2F7842B96
:100390008C9393C0A2E3B0E0E2E3F0E08081482FC9
:1003A0008B81282F30E081E090E0022E02C0880F80
:1003B000991F0A94E2F7842B8C937FC019827DC029
:1003C0008C81882309F076C08A81282F30E03E8313
:1003D0002D838D819E818130910559F12D813E8142
:1003E000223031052CF48D819E81009769F060C028
:1003F0002D813E812230310589F18D819E818330AE
:10040000910509F440C054C0ABE3B0E0EBE3F0E089
:100410008081482F8B81282F30E081E090E0022EF0
:1004200002C0880F991F0A94E2F7809584238C9369
:1004300044C0A8E3B0E0E8E3F0E08081482F8B817E
:10044000282F30E081E090E0022E02C0880F991F33
:100450000A94E2F7809584238C932FC0A5E3B0E043
:10046000E5E3F0E08081482F8B81282F30E081E0A8
:1004700090E0022E02C0880F991F0A94E2F780953F
:1004800084238C931AC0A2E3B0E0E2E3F0E0808121
:10049000482F8B81282F30E081E090E0022E02C0AF
:1004A000880F991F0A94E2F7809584238C9305C0E6
:1004B000198203C0198201C01982898128960FB65A
:1004C000F894DEBF0FBECDBFCF91DF910895DF93CB
:1004D000CF93CDB7DEB727970FB6F894DEBF0FBE28
:1004E000CDBF8A836B835D834C8381E089838B815D
:1004F000883008F073C08A81282F30E03F832E8334
:100500004E815F814130510559F18E819F8182304A
:10051000910534F42E813F812115310569F05CC0CD
:100520004E815F814230510579F18E819F81833008
:10053000910509F43DC050C0E9E3F0E08081282F27
:1005400030E08B81882F90E0A90102C05595479536
:100550008A95E2F7CA018170EC81FD8180833FC0FA
:10056000E6E3F0E08081282F30E08B81882F90E057
:10057000A90102C0559547958A95E2F7CA01817095
:10058000EC81FD8180832BC0E3E3F0E08081282FA4
:1005900030E08B81882F90E0A90102C055954795E6
:1005A0008A95E2F7CA018170EC81FD81808317C0D2
:1005B000E0E3F0E08081282F30E08B81882F90E00D
:1005C000A90102C0559547958A95E2F7CA01817045
:1005D000EC81FD81808303C0198201C01982898169
:1005E00027960FB6F894DEBF0FBECDBFCF91DF9137
:1005F0000895DF93CF93CDB7DEB7AFE5B0E0EFE579
:10060000F0E0808180688C93CF91DF910895DF9333
:10061000CF93CDB7DEB782E065E041E00E944900AC
:1006200082E066E041E00E94490082E067E041E04C
:100630000E94490082E062E040E00E94490082E0BE
:1006400063E040E00E94490082E064E040E00E94F4
:10065000490082E062E041E00E94580182E063E0EC
:1006600041E00E94580182E064E041E00E945801AC
:1006700082E065E041E00E94580182E066E041E0EE
:100680000E94580182E067E041E00E945801CF914A
:10069000DF910895DF93CF9300D000D00F92CDB7B4
:1006A000DEB78FEF8B83198256C08981882F90E047
:1006B000FC01E05AFF4F908182E0692F40E00E94E8
:1006C00058011A8236C08A81882F90E0FC01ED59CA
:1006D000FF4F90819E012C5F3F4F82E0692FA9015F
:1006E0000E9467028C81882309F58A81282F30E0D7
:1006F0008981482F50E0C901880F991F820F931FED
:10070000840F951FFC01EA59FF4F80818B838981FB
:10071000882F90E0FC01E05AFF4F908182E0692F22
:1007200041E00E9458018B818D831BC08A818F5FBD
:100730008A838A81833038F28981882F90E0FC0196
:10074000E05AFF4F908182E0692F41E00E945801FA
:1007500089818F5F89838981833008F4A6CF8B815B
:100760008D838D810F900F900F900F900F90CF91F0
:10077000DF910895DF93CF9300D0CDB7DEB78983A3
:100780006A8389816A8141E00E9449000F900F903D
:10079000CF91DF910895DF93CF9300D0CDB7DEB72F
:1007A00089836A8389816A8141E00E9458010F90A0
:1007B0000F90CF91DF910895DF93CF9300D0CDB705
:1007C000DEB789836A8389816A8140E00E9458018B
:1007D0000F900F90CF91DF910895DF93CF930F92F9
:1007E000CDB7DEB789830E948F048981882359F4AD
:1007F00083E062E041E00E94490083E063E041E081
:100800000E9449000DC08981813051F483E066E087
:1008100041E00E94490083E067E041E00E94490016
:100820000F90CF91DF910895DF93CF930F92CDB7C3
:10083000DEB7898389810E94D6040F90CF91DF9122
:100840000895DF93CF9300D0CDB7DEB789836A8355
:1008500089818823E1F48A81813059F483E062E060
:1008600041E00E94580183E063E040E00E945801AB
:100870002CC08A81882349F583E062E040E00E9431
:10088000580183E063E041E00E9458011EC0898165
:100890008130D9F48A81813059F483E066E041E007
:1008A0000E94580183E067E040E00E9458010DC0BB
:1008B0008A81882351F483E066E040E00E94580179
:1008C00083E067E041E00E9458010F900F90CF91C4
:1008D000DF910895DF93CF930F92CDB7DEB7898371
:1008E0008981882359F483E062E040E00E94580146
:1008F00083E063E040E00E9458010DC089818130AF
:1009000051F483E066E040E00E94580183E067E034
:1009100040E00E9458010F90CF91DF910895DF933E
:10092000CF93CDB7DEB789EA94E00E9451050E94CB
:10093000E30483E064E041E00E94490083E065E075
:1009400041E00E94490087EE0E94F404CF91DF91BC
:100950000895DF93CF93CDB7DEB7809170008F5F9E
:10096000809370009091700080917100981759F4F5
:1009700083E064E040E00E94580183E065E040E0ED
:100980000E94580110C080917000843660F010926F
:10099000700083E064E041E00E94580183E065E07C
:1009A00041E00E945801CF91DF910895DF93CF93EA
:1009B0000F92CDB7DEB789838981809371000F9044
:1009C000CF91DF910895DF93CF93CDB7DEB7E3E505
:1009D000F0E01082A9E5B0E0E9E5F0E08081816017
:1009E0008C93CF91DF910895DF93CF930F92CDB782
:1009F000DEB7898389810E942D05A3E5B0E0E3E598
:100A0000F0E0808183608C930F90CF91DF91089507
:100A1000DF93CF93CDB7DEB7A3E5B0E0E3E5F0E039
:100A20008081887F8C93CF91DF910895DF93CF935E
:100A3000CDB7DEB7E8E5F0E080818170CF91DF913E
:100A40000895DF93CF93CDB7DEB7E8E5F0E080817E
:100A500086958170CF91DF910895DF93CF930F92A8
:100A6000CDB7DEB78983898180937600E2E5F0E037
:100A70008091760080830F90CF91DF910895DF936E
:100A8000CF9300D0CDB7DEB79A83898389819A81CD
:100A900090937300809372000F900F90CF91DF912D
:100AA0000895DF93CF9300D0CDB7DEB79A838983C3
:100AB00089819A8190937500809374000F900F90B4
:100AC000CF91DF9108951F920F920FB60F921124CC
:100AD0002F933F934F935F936F937F938F939F9346
:100AE000AF93BF93EF93FF93DF93CF93CDB7DEB771
:100AF0008091720090917300009729F0E09172004C
:100B0000F09173000995CF91DF91FF91EF91BF9123
:100B1000AF919F918F917F916F915F914F913F9195
:100B20002F910F900FBE0F901F9018951F920F924C
:100B30000FB60F9211242F933F934F935F936F93B0
:100B40007F938F939F93AF93BF93EF93FF93DF9325
:100B5000CF93CDB7DEB7E2E5F0E0809176008083F9
:100B60008091740090917500009729F0E0917400D5
:100B7000F09175000995CF91DF91FF91EF91BF91B1
:100B8000AF919F918F917F916F915F914F913F9125
:100B90002F910F900FBE0F901F901895DF93CF935A
:100BA00000D00F92CDB7DEB70E94F9020E94070372
:100BB00080E00E94ED0381E00E94ED0319820E9413
:100BC000E1060E944A03883009F093C089818F5F53
:100BD00089838981853010F081E089838981282F7C
:100BE00030E03B832A838A819B818230910539F1F1
:100BF0002A813B812330310534F48A819B81813005
:100C0000910561F04EC02A813B812330310541F1CD
:100C10008A819B8184309105A1F143C081E064E029
:100C20000E94CB0381E065E00E94DC0381E066E086
:100C30000E94DC0381E067E00E94DC0332C081E0B7
:100C400064E00E94DC0381E065E00E94CB0381E068
:100C500066E00E94DC0381E067E00E94DC0321C0C3
:100C600081E064E00E94DC0381E065E00E94DC0337
:100C700081E066E00E94CB0381E067E00E94DC0334
:100C800010C081E064E00E94DC0381E065E00E9426
:100C9000DC0381E066E00E94DC0381E067E00E9403
:100CA000CB030E944A038830E1F323C0898181305D
:100CB00031F48EE10E9414040E94A7061AC08981B3
:100CC000823031F48CE30E9414040E94A70611C004
:100CD0008981833031F48AE50E9414040E94A706BA
:100CE00008C08981843029F48EE10E9414040E9496
:100CF00098060E944A038230C9F20E94D40605C0B9
:100D00008EE10E9414040E94B6060E944A038630B7
:100D1000B9F30E94D40605C08EE10E9414040E941B
:100D2000C5060E944A038430B9F30E94D40649CF15
:100D3000DF93CF93CDB7DEB780E060E00E9421045F
:100D400081E060E00E942104CF91DF910895DF935C
:100D5000CF93CDB7DEB780E061E00E94210481E04F
:100D600061E00E942104CF91DF910895DF93CF933A
:100D7000CDB7DEB780E061E00E94210481E060E051
:100D80000E942104CF91DF910895DF93CF93CDB7D7
:100D9000DEB780E060E00E94210481E061E00E9413
:100DA0002104CF91DF910895DF93CF93CDB7DEB7C4
:100DB00080E00E946A0481E00E946A04CF91DF9182
:100DC0000895DF93CF93CDB7DEB781E064E00E9452
:100DD000BA0381E065E00E94BA0381E066E00E9408
:100DE000BA0381E067E00E94BA03CF91DF910895D2
:040DF000F894FFCFA5
:100DF40005060702030401020304050607080900A7
:00000001FF
